0234UNIMED TRES CORACOES          1204202230001999900550055000000000000000000000000000000000000000012042022                                                                                      00001
100000354047000022340055376302110GUSTAVO A V SGARBOSA     00021367207032022        2010421900000004000000000000000000000000004160000000000000000000000000000003902340055376302110           N    00006
100000102468600012340055334065005ELIAS ROSA TEODORO       00018967401042022        1010101200000001000000000000000000000000001300000000000000000000000000000003002340055334065005           N    00004
100000200020019012340055364452007JUSCILENE DOS SANTOS     11000105019022022        1010103900000001000000000000000000000000002500000000000000000000000000000006402340055364452007           N    00005
100000402468057012340055371246018VERONICA MACEDO R SILVA  00014268631032022        1010101200000001000000000000000000000000001300000000000000000000000000000000652340055371246018           N    00008
100000402468787012340055376396000ALISSON OTAVIO DA SILVA  00014268601042022        1010101200000001000000000000000000000000001300000000000000000000000000000000652340055376396000           N    00011
100000402465463012340055356522000GILBERTO DE AGUIAR CELSO 00014268628032022        1010101200000001000000000000000000000000001300000000000000000000000000000000652340055356522000           N    00007
100000402468467012340055330035110PABLO ALVES BATISTA      00014268601042022        1010101200000001000000000000000000000000001300000000000000000000000000000000652340055330035110           N    00010
100000602468591012340055333530022MONICA A R CERQUEIRA     00041973001042022        1010101200000001000000000000000000000000001800000000000000000000000000000003402340055333530022           N    00012
100000802465313012340055373273004ADEILSON VICENTE PEREIRA 00034841128032022        1010101200000001000000000000000000000000001300000000000000000000000000000000602340055373273004           N    00017
100001202465502012340055365122000LUIS AMIR DOS SANTOS     00050416028032022        1010101200000001000000000000000000000000001300000000000000000000000000000004302340055365122000           N    00026
100000802465298012340055037897006PAULO ROGERIO MARTINS    00034841128032022        1010101200000001000000000000000000000000001300000000000000000000000000000000602340055037897006           N    00015
100001202466990012340055364959004CRISTIANO DA SILVA       00050416030032022        1010101200000001000000000000000000000000001300000000000000000000000000000004302340055364959004           N    00027
100000802466108022340055337587100LUIS G G CAMILO          00034841129032022        4010104500000001000000000000000000000000001760000000000000000000000000000000602340055337587100           N    00019
100001102468729012340055335720015SILVIA AP MARIO FERREIRA 00013148001042022        1010101200000001000000000000000000000000001800000000000000000000000000000000652340055335720015           N    00025
100001502465815012340055334421014SANDRA AUGUSTO LUDGERO   00039543028032022        1010101200000001000000000000000000000000001300000000000000000000000000000002002340055334421014           N    00029
100001502468079012340055365033008TATIANE FELICIANO XIMENES00039543031032022        1010101200000001000000000000000000000000001300000000000000000000000000000002002340055365033008           N    00032
100001602467044012340055351938127PHELIPE HENRIQUE E SILVA 00006736630032022        1010101200000001000000000000000000000000001300000000000000000000000000000003602340055351938127           N    00036
100001602468693012340055105116116LUIZ GUSTAVO P DE SOUZA  00006736601042022        1010101200000001000000000000000000000000001300000000000000000000000000000003602340055105116116           N    00040
100001702468520012340055105130003ISMAEL J MIRANDA         00023738501042022        1010101200000001000000000000000000000000001300000000000000000000000000000003402340055105130003           N    00042
100001602468496012340055038096325ANTONELLA OLIVEIRA SANTOS00006736601042022        1010101200000001000000000000000000000000001300000000000000000000000000000003602340055038096325           N    00039
100001802465837022340055334421006EDILSON MORAIS LUDGERO   00029138028032022        4130132300000001000000000000000000000000000200000000000000000000000000000003302340055334421006           N    00048
100001602468695012340055105116108JOAO VICTOR P DE SOUZA   00006736601042022        1010101200000001000000000000000000000000001300000000000000000000000000000003602340055105116108           N    00041
100001802466461022340055336661101RYAN AUGUSTO ALVARO      00029138029032022        4130132300000001000000000000000000000000000200000000000000000000000000000003302340055336661101           N    00054
100001802466259012340055350311023SHAIENE DE ASSIS SANTOS  00029138029032022        1010101200000001000000000000000000000000001300000000000000000000000000000003302340055350311023           N    00049
100001802467057012340055331112002ELITON DOS SANTOS COSTA  00029138030032022        1010101200000001000000000000000000000000001800000000000000000000000000000003302340055331112002           N    00057
100001802467042022340055331112010GISLENE A BELARMINO COSTA00029138030032022        4130132300000001000000000000000000000000000200000000000000000000000000000003302340055331112010           N    00056
100001802467745022340055378038011INGRID ESTEFANY C VERAS  00029138031032022        4130132300000001000000000000000000000000000200000000000000000000000000000003302340055378038011           N    00060
100001902465433022340055305383002ROSANA RODRIGUES B SENA  00024013028032022        4130132300000001000000000000000000000000000200000000000000000000000000000003302340055305383002           N    00062
100002102468658012340055375934105ANTHONY GABRIEL A BISPO  00043871001042022        1010101200000001000000000000000000000000001300000000000000000000000000000003502340055375934105           N    00069
100002302466711012340055347051016ALENIARA DE A C RIBEIRO  00012688529032022        1010101200000001000000000000000000000000001800000000000000000000000000000001802340055347051016           N    00075
100002302467330012340055038270007POLIANE ANDRADE FERREIRA 00012688530032022        1010101200000001000000000000000000000000001800000000000000000000000000000001802340055038270007           N    00077
100002302468065012340055350508013LILIAN MAFRA SILVA       00012688531032022        1010101200000001000000000000000000000000001300000000000000000000000000000001802340055350508013           N    00078
100002902467492012340055338621000EDSON SANTOS GABRIEL     00056722030032022        1010101200000001000000000000000000000000001300000000000000000000000000000001302340055338621000           N    00082
100003202467164012340055373338009EDMUNDO A FERREIRA       00042794030032022        1010101200000001000000000000000000000000001300000000000000000000000000000003402340055373338009           N    00087
100000102452745012340055339318025NADIA DOS SANTOS         00018967403032022        1010101200000001000000000000000000000000001300000000000000000000000000000003002340055339318025           N    00002
100003502465823012340055373354012ELIANA RANGEL MAFRA      00016420528032022        1010101200000001000000000000000000000000001300000000000000000000000000000000172340055373354012           N    00088
100001802467742012340055378038011INGRID ESTEFANY C VERAS  00029138031032022        1010101200000001000000000000000000000000001800000000000000000000000000000003302340055378038011           N    00059
100000702468260012340055350389006CARLOS F DE OLIVEIRA     00026030131032022        1010101200000001000000000000000000000000001300000000000000000000000000000002702340055350389006           N    00014
100003558108000022340055334960012TATIANA DO C OLIVEIRA    00016420514032022        TX HOSP 00000001000000000000000000000000000000000000000003000000000000000000172340055334960012           N    00093
100003802467283012340055356778012DANIELE TEIXEIRA         00024026230032022        1010101200000001000000000000000000000000001300000000000000000000000000000001802340055356778012           N    00100
100000802465314022340055373273004ADEILSON VICENTE PEREIRA 00034841128032022        4010101000000001000000000000000000000000000480000000000000000000000000000000602340055373273004           N    00018
100001902467846012340055366870027RICARDO RAIMUNDO ARAUJO  00024013031032022        1010101200000001000000000000000000000000001300000000000000000000000000000003302340055366870027           N    00064
100002102465631012340055355291101LUIZ MIGUEL N FELISBERTO 00043871028032022        1010101200000001000000000000000000000000001300000000000000000000000000000003502340055355291101           N    00067
100002302466659012340055038146004GLEDSON INACIO DA SILVA  00012688529032022        1010101200000001000000000000000000000000001300000000000000000000000000000001802340055038146004           N    00074
100002602465558012340055376965004ANTONIO VITOR DA C JUNIOR12000238028032022        1010101200000001000000000000000000000000001300000000000000000000000000000003402340055376965004           N    00080
100002902465858012340055373249006ELISEU FIRMINO ANDRADE   00056722028032022        1010101200000001000000000000000000000000001300000000000000000000000000000001302340055373249006           N    00081
100003902467352012340055369799307GEOVANNA SANTOS COSTA    00019244630032022        1010101200000001000000000000000000000000001300000000000000000000000000000003602340055369799307           N    00105
100003002466506012340055370999306MAITTE LETICIA T ALVES   00033528029032022        1010101200000001000000000000000000000000001800000000000000000000000000000003602340055370999306           N    00084
100004402467765012340055035819008HUDSON W FERREIRA        00032302831032022        1010101200000001000000000000000000000000001800000000000000000000000000000002902340055035819008           N    00124
100003002468938022340055375225015DAMARIS A N SANTIAGO     00033528001042022        4130147100000001000000000000000000000000000384000000000000000000000000000003602340055375225015           N    00086
100004402467775012340055038013020MONIQUE MORAIS ANDRADE   00032302831032022        1010101200000001000000000000000000000000001800000000000000000000000000000002902340055038013020           N    00125
100004902466576012340055350583015CINDIELEN P FRANCISCO    00015124329032022        1010101200000001000000000000000000000000001300000000000000000000000000000000172340055350583015           N    00130
100003502467970012340055332607013THAILA PEREIRA S GOMES   00016420531032022        1010101200000001000000000000000000000000001300000000000000000000000000000000172340055332607013           N    00089
100004964618000022340055036006027SONIA MARIA VALIM        00015124328032022        3010149200000001000000000000000000000000001200000000000000000000000000000000172340055036006027           N    00134
100003802460692022340055038146004GLEDSON INACIO DA SILVA  00024026218032022        4020261500000001000000000000000000000000006461000000000000000000000000000001802340055038146004           N    00098
100006402467640022340055370584025FRANCISCA IZABEL BARBOZA 12000256031032022        2010201100000001000000000000000000000000002800000000000000000000000000000000602340055370584025           N    00143
100007502467773012340055330493010SANDRA G CRESCENCIO      00031698631032022        1010101200000001000000000000000000000000001300000000000000000000000000000000202340055330493010           N    00146
100008002467808012340055337587010VALDIRENE G CAMILO       12000229031032022        1010101200000001000000000000000000000000001300000000000000000000000000000003402340055337587010           N    00150
100008302465975022340055331708320LAYLA OLIVEIRA SILVA     11000105028032022        1010103900000001000000000000000000000000002500000000000000000000000000000006402340055331708320           N    00152
100000602468727012340055362492010AUXILIADORA B M PINTO    00041973001042022        1010101200000001000000000000000000000000001300000000000000000000000000000003402340055362492010           N    00013
100001502467544012340055333000139YGOR RIBEIRO DA SILVA    00039543030032022        1010101200000001000000000000000000000000001300000000000000000000000000000002002340055333000139           N    00030
100003802468172012340055330035004LUCIO FLAVIO R BATISTA   00024026231032022        1010101200000001000000000000000000000000001300000000000000000000000000000001802340055330035004           N    00102
100008302465977022340055331708339HELOISA OLIVEIRA SILVA   11000105028032022        1010103900000001000000000000000000000000001800000000000000000000000000000006402340055331708339           N    00153
100004002457957022340055038011109GUILHERME AUGUSTO S MOTA 00056425014032022        4090110600000001000000000000000000000000004000000000000000000000000000000000602340055038011109           N    00108
100004002467656022340055105405010ELIANA ALVES DA S NUNES  00056425031032022        2010203800000001000000000000000000000000002800000000000000000000000000000000602340055105405010           N    00109
100008702466042022340055370460300SOFIA MOREIRA DE TOLEDO  13000006729032022        4030275000000001000000000000000000000000000560000000000000000000000000000005002340055370460300           N    00180
100004202466524012340055337153100MARTIN SOUZA FARIAS      00011070929032022        1010101200000001000000000000000000000000001300000000000000000000000000000003602340055337153100           N    00114
100008702466187022340055355364109MIGUEL OLIVEIRA PEREIRA  13000006729032022        4031627000000001000000000000000000000000001000000000000000000000000000000005002340055355364109           N    00197
100008702466187022340055355364109MIGUEL OLIVEIRA PEREIRA  13000006729032022        4031635100000001000000000000000000000000000680000000000000000000000000000005002340055355364109           N    00198
100008702466198022340055355364028DANIELE SANTOS O PEREIRA 13000006729032022        4031041800000001000000000000000000000000000160000000000000000000000000000005002340055355364028           N    00207
100008702466198022340055355364028DANIELE SANTOS O PEREIRA 13000006729032022        4031121000000001000000000000000000000000000160000000000000000000000000000005002340055355364028           N    00208
100008702466336022340055038169020FERNANDA G M DE SOUZA    13000006729032022        4030188500000001000000000000000000000000000144000000000000000000000000000005002340055038169020           N    00225
100008702466336022340055038169020FERNANDA G M DE SOUZA    13000006729032022        4030204000000001000000000000000000000000000112000000000000000000000000000005002340055038169020           N    00227
100008702466336022340055038169020FERNANDA G M DE SOUZA    13000006729032022        4030258000000001000000000000000000000000000112000000000000000000000000000005002340055038169020           N    00230
100009102465216022340055037980000LUIS GUSTAVO ALVES ADAO  00000002427032022        1010103900000001000000000000000000000000001800000000000000000000000000000006402340055037980000           N    00256
100009402465214022340055367796017THAIS DE PAULA DOS REIS  13000011327032022        4030158300000001000000000000000000000000000240000000000000000000000000000005002340055367796017           N    00261
100009402465214022340055367796017THAIS DE PAULA DOS REIS  13000011327032022        4030776000000001000000000000000000000000000160000000000000000000000000000005002340055367796017           N    00273
100009402465214022340055367796017THAIS DE PAULA DOS REIS  13000011327032022        4031652100000001000000000000000000000000000680000000000000000000000000000005002340055367796017           N    00277
100009402465970022340055036199011FRANCILENE G BORGES      13000011328032022        4030204000000001000000000000000000000000000112000000000000000000000000000005002340055036199011           N    00283
100009402465970022340055036199011FRANCILENE G BORGES      13000011328032022        4030283000000001000000000000000000000000000552000000000000000000000000000005002340055036199011           N    00285
100009402465970022340055036199011FRANCILENE G BORGES      13000011328032022        4030436100000001000000000000000000000000000240000000000000000000000000000005002340055036199011           N    00286
100009402465970022340055036199011FRANCILENE G BORGES      13000011328032022        4030667400000001000000000000000000000000000800000000000000000000000000000005002340055036199011           N    00288
100004202468134012340055353752101GAEL TAVARES FELISBERTO  00011070931032022        1010101200000001000000000000000000000000001300000000000000000000000000000003602340055353752101           N    00117
100009402465970022340055036199011FRANCILENE G BORGES      13000011328032022        4030702600000001000000000000000000000000001600000000000000000000000000000005002340055036199011           N    00290
100004302467306012340055377060307GABRIELA DE A FRANCISCO  00024752630032022        1010101200000001000000000000000000000000001300000000000000000000000000000000652340055377060307           N    00121
100004402468490012340055330809000MARCIO DE ANDRADE PURCINO00032302801042022        1010101200000001000000000000000000000000001300000000000000000000000000000002902340055330809000           N    00127
100009402465981022340055036199003HELIANDRO B DE SOUZA     13000011328032022        4030647000000001000000000000000000000000002400000000000000000000000000000005002340055036199003           N    00304
100004502465936012340055355364028DANIELE SANTOS O PEREIRA 00036523028032022        1010101200000001000000000000000000000000001800000000000000000000000000000001302340055355364028           N    00128
100004602464647022340055317349114WILLIAM GABRIEL FERNANDES00024708925032022        4020261500000001000000000000000000000000006461000000000000000000000000000002302340055317349114           N    00129
100009402466792022340055346632309MAITE MUNIZ DA SILVA     13000011329032022        4031121000000001000000000000000000000000000160000000000000000000000000000005002340055346632309           N    00310
100005502467457012340055377414001BLENER VENANCIO          00015942230032022        1010101200000001000000000000000000000000001300000000000000000000000000000003602340055377414001           N    00136
100009502465593022340055376892104ABNNER H O FERREIRA      00000002428032022        1010103900000001000000000000000000000000002500000000000000000000000000000006402340055376892104           N    00313
100006002466563012340055368121307MARIA GABRIELY F FARIA   00061241029032022        1010101200000001000000000000000000000000001300000000000000000000000000000003602340055368121307           N    00137
100009502465986022340055038286019LETICIA K C A BELINELLO  00000002428032022        1010103900000001000000000000000000000000002500000000000000000000000000000006402340055038286019           N    00314
100006002467768012340055037968108VITOR VIEIRA BATISTA     00061241031032022        1010101200000001000000000000000000000000001300000000000000000000000000000003602340055037968108           N    00140
100009502466003022340055330175108LAUANDER SILVA CARVALHO  00000002428032022        1010103900000001000000000000000000000000002500000000000000000000000000000006402340055330175108           N    00316
100006702466704012340055376892007HELIVELTON F FERREIRA    00055435029032022        1010101200000001000000000000000000000000001300000000000000000000000000000000172340055376892007           N    00144
100009602468621022340055303267013ELIZABETH K RIBEIRO      13000003201042022        4030231800000001000000000000000000000000000112000000000000000000000000000005002340055303267013           N    00328
100008402465511022340055316741312RENARA LINA PEREIRA      13000025028032022        4030727100000001000000000000000000000000000560000000000000000000000000000005002340055316741312           N    00160
100009602468621022340055303267013ELIZABETH K RIBEIRO      13000003201042022        4030258000000001000000000000000000000000000112000000000000000000000000000005002340055303267013           N    00331
100008402466623022340055377252010MARIANA MORENO R TAVARES 13000025029032022        4030839100000001000000000000000000000000000536000000000000000000000000000005002340055377252010           N    00164
100008702466042022340055370460300SOFIA MOREIRA DE TOLEDO  13000006729032022        4030204000000001000000000000000000000000000112000000000000000000000000000005002340055370460300           N    00179
100008702466042022340055370460300SOFIA MOREIRA DE TOLEDO  13000006729032022        4031652100000001000000000000000000000000000680000000000000000000000000000005002340055370460300           N    00186
100008702466198022340055355364028DANIELE SANTOS O PEREIRA 13000006729032022        4030204000000001000000000000000000000000000112000000000000000000000000000005002340055355364028           N    00201
100008702466198022340055355364028DANIELE SANTOS O PEREIRA 13000006729032022        4030311000000001000000000000000000000000000160000000000000000000000000000005002340055355364028           N    00204
100008702466198022340055355364028DANIELE SANTOS O PEREIRA 13000006729032022        4030436100000001000000000000000000000000000240000000000000000000000000000005002340055355364028           N    00205
100008702466198022340055355364028DANIELE SANTOS O PEREIRA 13000006729032022        4031636000000001000000000000000000000000000440000000000000000000000000000005002340055355364028           N    00209
100008702466198022340055355364028DANIELE SANTOS O PEREIRA 13000006729032022        4031652100000001000000000000000000000000000680000000000000000000000000000005002340055355364028           N    00210
100008702466331022340055334634301LARA ISABELE SILVA MUQUEM13000006729032022        4031652100000001000000000000000000000000000680000000000000000000000000000005002340055334634301           N    00223
100009602468621022340055303267013ELIZABETH K RIBEIRO      13000003201042022        4031649100000001000000000000000000000000000680000000000000000000000000000005002340055303267013           N    00333
100008702466336022340055038169020FERNANDA G M DE SOUZA    13000006729032022        4030199000000001000000000000000000000000000160000000000000000000000000000005002340055038169020           N    00226
100008702466336022340055038169020FERNANDA G M DE SOUZA    13000006729032022        4030273300000001000000000000000000000000000360000000000000000000000000000005002340055038169020           N    00231
100009602468623022340055303267013ELIZABETH K RIBEIRO      13000003201042022        4030128100000001000000000000000000000000000112000000000000000000000000000005002340055303267013           N    00335
100008702466338022340055038169020FERNANDA G M DE SOUZA    13000006729032022        4030193100000001000000000000000000000000000112000000000000000000000000000005002340055038169020           N    00238
100008702466338022340055038169020FERNANDA G M DE SOUZA    13000006729032022        4030223700000001000000000000000000000000000128000000000000000000000000000005002340055038169020           N    00239
100008702466342022340055038169020FERNANDA G M DE SOUZA    13000006729032022        4030216400000001000000000000000000000000000640000000000000000000000000000005002340055038169020           N    00245
100009102465122022340055037965001PEDRO JOSE BRAGA         00000002426032022        1010103900000001000000000000000000000000001800000000000000000000000000000006402340055037965001           N    00250
100009102465129022340055105193005GEDER RANEON SANTOS SILVA00000002426032022        1010103900000001000000000000000000000000002500000000000000000000000000000006402340055105193005           N    00252
100009602468623022340055303267013ELIZABETH K RIBEIRO      13000003201042022        4030283000000001000000000000000000000000000552000000000000000000000000000005002340055303267013           N    00341
100009102465147022340055105133002PAULO R SANTOS SILVA     00000002426032022        1010103900000001000000000000000000000000001800000000000000000000000000000006402340055105133002           N    00254
100009102465260022340055371556106ANTHONY GABRIEL S AUGUSTO00000002427032022        1010103900000001000000000000000000000000001800000000000000000000000000000006402340055371556106           N    00258
100009702468750022340055038146004GLEDSON INACIO DA SILVA  00057381001042022        4090112200000001000000000000000000000000002975000000000000000000000000000004002340055038146004           N    00347
100009402465214022340055367796017THAIS DE PAULA DOS REIS  13000011327032022        4030204000000001000000000000000000000000000112000000000000000000000000000005002340055367796017           N    00264
100009402465214022340055367796017THAIS DE PAULA DOS REIS  13000011327032022        4030250400000001000000000000000000000000000112000000000000000000000000000005002340055367796017           N    00265
100009902467939022340055330493010SANDRA G CRESCENCIO      13000017231032022        4031041800000001000000000000000000000000000160000000000000000000000000000005002340055330493010           N    00349
100009402465214022340055367796017THAIS DE PAULA DOS REIS  13000011327032022        4030283000000001000000000000000000000000000552000000000000000000000000000005002340055367796017           N    00268
100009902468395022340055038239029HEVILY RUANA DA COSTA    13000017201042022        4030158300000001000000000000000000000000000240000000000000000000000000000005002340055038239029           N    00352
100009902468395022340055038239029HEVILY RUANA DA COSTA    13000017201042022        4030204000000001000000000000000000000000000112000000000000000000000000000005002340055038239029           N    00359
100009402465214022340055367796017THAIS DE PAULA DOS REIS  13000011327032022        4030606200000001000000000000000000000000000320000000000000000000000000000005002340055367796017           N    00270
100009902468395022340055038239029HEVILY RUANA DA COSTA    13000017201042022        4030269500000001000000000000000000000000000240000000000000000000000000000005002340055038239029           N    00365
100009402465214022340055367796017THAIS DE PAULA DOS REIS  13000011327032022        4031649100000001000000000000000000000000000680000000000000000000000000000005002340055367796017           N    00276
100009902468395022340055038239029HEVILY RUANA DA COSTA    13000017201042022        4030312800000001000000000000000000000000000160000000000000000000000000000005002340055038239029           N    00367
100009402465248022340055344702024MICHELI AMARAL BORGES    13000011327032022        4030436100000001000000000000000000000000000240000000000000000000000000000005002340055344702024           N    00278
100009402465248022340055344702024MICHELI AMARAL BORGES    13000011327032022        4030459000000001000000000000000000000000000120000000000000000000000000000005002340055344702024           N    00279
100009902468395022340055038239029HEVILY RUANA DA COSTA    13000017201042022        4030436100000001000000000000000000000000000240000000000000000000000000000005002340055038239029           N    00368
100009902468395022340055038239029HEVILY RUANA DA COSTA    13000017201042022        4031627000000001000000000000000000000000001000000000000000000000000000000005002340055038239029           N    00372
100009402465970022340055036199011FRANCILENE G BORGES      13000011328032022        4030158300000001000000000000000000000000000240000000000000000000000000000005002340055036199011           N    00281
100010102465542022340055362409309ANA LUIZA DE OLIVEIRA    12000174528032022        4030436100000001000000000000000000000000000240000000000000000000000000000005002340055362409309           N    00385
100009402465970022340055036199011FRANCILENE G BORGES      13000011328032022        4030666600000001000000000000000000000000000533000000000000000000000000000005002340055036199011           N    00287
100010102465542022340055362409309ANA LUIZA DE OLIVEIRA    12000174528032022        4030839100000001000000000000000000000000000536000000000000000000000000000005002340055362409309           N    00387
100009402465970022340055036199011FRANCILENE G BORGES      13000011328032022        4030776000000001000000000000000000000000000160000000000000000000000000000005002340055036199011           N    00292
100009402465981022340055036199003HELIANDRO B DE SOUZA     13000011328032022        4030251200000001000000000000000000000000000112000000000000000000000000000005002340055036199003           N    00301
100010702466963022340055377341012ATHAILA CRISTINA B GOMES 13000006730032022        4031021300000001000000000000000000000000000400000000000000000000000000000005002340055377341012           N    00392
100009502465996022340055038246300MYLENA DE ANDRADE COSTA  00000002428032022        1010103900000001000000000000000000000000002500000000000000000000000000000006402340055038246300           N    00315
100009502466273022340055373010003ALEXANDRE NEVES SILVA    00000002429032022        1010103900000001000000000000000000000000002500000000000000000000000000000006402340055373010003           N    00318
100010702468636022340055377422004WERICK FERREIRA FRANCISCO13000006701042022        4030258000000001000000000000000000000000000112000000000000000000000000000005002340055377422004           N    00418
100010702468636022340055377422004WERICK FERREIRA FRANCISCO13000006701042022        4030436100000001000000000000000000000000000240000000000000000000000000000005002340055377422004           N    00420
100010802468305022340055306100004SIVALDO CARLOS DOS SANTOS00000002431032022        1010103900000001000000000000000000000000001800000000000000000000000000000006402340055306100004           N    00432
100010902467888022340055105405010ELIANA ALVES DA S NUNES  13000025031032022        4030184200000001000000000000000000000000000144000000000000000000000000000005002340055105405010           N    00447
100010902467922022340055334030007TIAGO ALBERTO LEMES      13000025031032022        4030251200000001000000000000000000000000000112000000000000000000000000000005002340055334030007           N    00458
100010902468889022340055342734000SANDRO MARCON DA CRUZ    13000025001042022        4030275000000001000000000000000000000000000560000000000000000000000000000005002340055342734000           N    00478
100011066410000022340055330043023ARIADINE LENISE ALVES    00034841130032022        4010103700000001000000000000000000000000002067000000000000000000000000000000602340055330043023           N    00485
100009502466817022340055345709006NEILO JOSE MASSARI       00000002429032022        1010103900000001000000000000000000000000002500000000000000000000000000000006402340055345709006           N    00319
100011267605000022340055038001316ANA JULIA M TIBURCIO     11000105031032022        4080101200000001000000000000000000000000000616000000000000000000000000000006402340055038001316           N    00491
100009602468621022340055303267013ELIZABETH K RIBEIRO      13000003201042022        4030163000000001000000000000000000000000000112000000000000000000000000000005002340055303267013           N    00325
100011302468833022340055330043023ARIADINE LENISE ALVES    13000006701042022        4030204000000001000000000000000000000000000112000000000000000000000000000005002340055330043023           N    00493
100009602468621022340055303267013ELIZABETH K RIBEIRO      13000003201042022        4030207500000001000000000000000000000000000360000000000000000000000000000005002340055303267013           N    00327
100011302468833022340055330043023ARIADINE LENISE ALVES    13000006701042022        4030275000000001000000000000000000000000000560000000000000000000000000000005002340055330043023           N    00497
100009602468621022340055303267013ELIZABETH K RIBEIRO      13000003201042022        4031652100000001000000000000000000000000000680000000000000000000000000000005002340055303267013           N    00334
100011302468833022340055330043023ARIADINE LENISE ALVES    13000006701042022        4031121000000001000000000000000000000000000160000000000000000000000000000005002340055330043023           N    00501
100009602468623022340055303267013ELIZABETH K RIBEIRO      13000003201042022        4030140000000001000000000000000000000000000112000000000000000000000000000005002340055303267013           N    00336
100011302468833022340055330043023ARIADINE LENISE ALVES    13000006701042022        4031657200000001000000000000000000000000000680000000000000000000000000000005002340055330043023           N    00504
100011302468848022340055038352003BRUNO FELYPE S DAMASCENO 13000006701042022        4030717400000001000000000000000000000000001200000000000000000000000000000005002340055038352003           N    00516
100000102468587012340055323349023EDNA DE OLIVEIRA         00018967401042022        1010101200000001000000000000000000000000001800000000000000000000000000000003002340055323349023           N    00003
100009602468623022340055303267013ELIZABETH K RIBEIRO      13000003201042022        4031121000000001000000000000000000000000000160000000000000000000000000000005002340055303267013           N    00343
100000402468115012340055333530022MONICA A R CERQUEIRA     00014268631032022        1010101200000001000000000000000000000000001800000000000000000000000000000000652340055333530022           N    00009
100009902468395022340055038239029HEVILY RUANA DA COSTA    13000017201042022        4030254700000001000000000000000000000000000160000000000000000000000000000005002340055038239029           N    00363
100009902468395022340055038239029HEVILY RUANA DA COSTA    13000017201042022        4031657200000001000000000000000000000000000680000000000000000000000000000005002340055038239029           N    00374
100010102465542022340055362409309ANA LUIZA DE OLIVEIRA    12000174528032022        4030311000000001000000000000000000000000000160000000000000000000000000000005002340055362409309           N    00384
100010702467628022340055377060307GABRIELA DE A FRANCISCO  13000006731032022        4030273300000001000000000000000000000000000360000000000000000000000000000005002340055377060307           N    00395
100010702467628022340055377060307GABRIELA DE A FRANCISCO  13000006731032022        4030838300000001000000000000000000000000000360000000000000000000000000000005002340055377060307           N    00398
100010702467898022340055038246300MYLENA DE ANDRADE COSTA  13000006731032022        4030115000000001000000000000000000000000000112000000000000000000000000000005002340055038246300           N    00401
100010702467898022340055038246300MYLENA DE ANDRADE COSTA  13000006731032022        4030188500000001000000000000000000000000000144000000000000000000000000000005002340055038246300           N    00403
100010702467898022340055038246300MYLENA DE ANDRADE COSTA  13000006731032022        4030204000000001000000000000000000000000000112000000000000000000000000000005002340055038246300           N    00405
100011402468975022340055346918300EMANUELLY SGARBOSA S MELO00000002401042022        1010103900000001000000000000000000000000001800000000000000000000000000000006402340055346918300           N    00520
100010702468636022340055377422004WERICK FERREIRA FRANCISCO13000006701042022        4030251200000001000000000000000000000000000112000000000000000000000000000005002340055377422004           N    00417
100011667972000022340055038026025MARIELE SUSANA ERNESTO   13000010501042022        4080804100000001000000000000000000000000003047000000000000000000000000000004002340055038026025           N    00521
100010702468636022340055377422004WERICK FERREIRA FRANCISCO13000006701042022        4030685200000001000000000000000000000000000336000000000000000000000000000005002340055377422004           N    00421
100010702468636022340055377422004WERICK FERREIRA FRANCISCO13000006701042022        4031332800000001000000000000000000000000000960000000000000000000000000000005002340055377422004           N    00422
100012702453670022340055373249014BRUNA K L C ANDRADE      13000010507032022        4080106300000001000000000000000000000000000618000000000000000000000000000004002340055373249014           N    00523
100010802467909022340055036099009CLODOALDO S DOMINGOS     00000002431032022        1010103900000001000000000000000000000000002500000000000000000000000000000006402340055036099009           N    00430
100010802467928022340055036099025LUCIANA ARAUJO ATHANASIO 00000002431032022        1010103900000001000000000000000000000000001800000000000000000000000000000006402340055036099025           N    00431
100012702453670022340055373249014BRUNA K L C ANDRADE      13000010507032022        4090130000000001000000000000000000000000001674000000000000000000000000000004002340055373249014           N    00526
100010902467881022340055364959004CRISTIANO DA SILVA       13000025031032022        4030436100000001000000000000000000000000000240000000000000000000000000000005002340055364959004           N    00441
100012702453801022340055036119107FELIPE R ANDRADE GOULART 13000010507032022        4090112200000001000000000000000000000000002975000000000000000000000000000004002340055036119107           N    00527
100010902467881022340055364959004CRISTIANO DA SILVA       13000025031032022        4031651300000001000000000000000000000000000840000000000000000000000000000005002340055364959004           N    00445
100010902467922022340055334030007TIAGO ALBERTO LEMES      13000025031032022        4030163000000001000000000000000000000000000112000000000000000000000000000005002340055334030007           N    00454
100012702454446022340055328189024MARIA JULIA SOUZA        13000010508032022        4090121100000001000000000000000000000000001514000000000000000000000000000004002340055328189024           N    00533
100010902468889022340055342734000SANDRO MARCON DA CRUZ    13000025001042022        4030199000000001000000000000000000000000000160000000000000000000000000000005002340055342734000           N    00474
100010902468889022340055342734000SANDRO MARCON DA CRUZ    13000025001042022        4030251200000001000000000000000000000000000112000000000000000000000000000005002340055342734000           N    00477
100012702456839022340055323764012MARLY DOS REIS DE ALMEIDA13000010511032022        4080804100000001000000000000000000000000003047000000000000000000000000000004002340055323764012           N    00538
100010902468889022340055342734000SANDRO MARCON DA CRUZ    13000025001042022        4031652100000001000000000000000000000000000680000000000000000000000000000005002340055342734000           N    00480
100012702456839022340055323764012MARLY DOS REIS DE ALMEIDA13000010511032022        4090121100000001000000000000000000000000001514000000000000000000000000000004002340055323764012           N    00540
100012902442446022340055346950017MARIA NAZARE DE J SOUZA  12000175310022022        2010334400000010000000000000000000000000004000000000000000000000000000000006102340055346950017           N    00542
100012902449164022340055303267013ELIZABETH K RIBEIRO      12000175323022022        2010334400000010000000000000000000000000004000000000000000000000000000000006102340055303267013           N    00543
100012902449164022340055303267013ELIZABETH K RIBEIRO      12000175323022022        2010348400000010000000000000000000000000002240000000000000000000000000000006102340055303267013           N    00544
100013202455867012340055370193000ROGERIO G DA SILVA       00012688509032022        1010101200000001000000000000000000000000001300000000000000000000000000000001802340055370193000           N    00553
100011302468848022340055038352003BRUNO FELYPE S DAMASCENO 13000006701042022        4030727100000001000000000000000000000000000560000000000000000000000000000005002340055038352003           N    00517
100013402454332012340055308854006PAULA NAVES M BARBOZA    00013148007032022        1010101200000001000000000000000000000000001300000000000000000000000000000000652340055308854006           N    00559
100012702453801022340055036119107FELIPE R ANDRADE GOULART 13000010507032022        4090121100000001000000000000000000000000001514000000000000000000000000000004002340055036119107           N    00528
100013602454192012340055328219020LUCIANA A DE OLIVEIRA    00050416007032022        1010101200000001000000000000000000000000001300000000000000000000000000000004302340055328219020           N    00571
100013602458774012340055346950009ADILSON F DE SOUZA       00050416015032022        1010101200000001000000000000000000000000001300000000000000000000000000000004302340055346950009           N    00575
100012702454151022340055035758017MARGARETE A C BALBINO    13000010507032022        4080803300000001000000000000000000000000002164000000000000000000000000000004002340055035758017           N    00529
100013902454377012340055364452007JUSCILENE DOS SANTOS     00046216008032022        1010101200000001000000000000000000000000001300000000000000000000000000000000652340055364452007           N    00585
100014302454419012340055371580104ENZO MIGUEL F FLAUZINO   00006736608032022        1010101200000001000000000000000000000000001300000000000000000000000000000003602340055371580104           N    00593
100012702454446022340055328189024MARIA JULIA SOUZA        13000010508032022        4090111400000001000000000000000000000000001514000000000000000000000000000004002340055328189024           N    00532
100014302454817012340055369764104ARTHUR CAUA SILVA COSTA  00006736608032022        1010101200000001000000000000000000000000001300000000000000000000000000000003602340055369764104           N    00596
100012702455660022340055340415012ROSA H SILVA             13000010509032022        4090176900000001000000000000000000000000001907000000000000000000000000000004002340055340415012           N    00536
100014302455350012340055331058300GABRIELA SILVA ARAUJO    00006736609032022        1010101200000001000000000000000000000000001300000000000000000000000000000003602340055331058300           N    00597
100012939247005022340055308811005VIVIANE DA SILVA         12000175304022022        2010364600000010000000000000000000000000016940000000000000000000000000000006102340055308811005           N    00545
100014302455483012340055038170100CARLOS EDUARDO S ERNESTO 00006736609032022        1010101200000001000000000000000000000000001300000000000000000000000000000003602340055038170100           N    00599
100014402454413012340055037971001RAYRIK J DOS S ORBOLATO  00015942208032022        1010101200000001000000000000000000000000001800000000000000000000000000000003602340055037971001           N    00602
100013202453727012340055105125018MARCELA DE F OLIVEIRA    00012688507032022        1010101200000001000000000000000000000000001300000000000000000000000000000001802340055105125018           N    00551
100014702456490012340055346918008CLAUDIO DE MELO LUIZ     00032302810032022        1010101200000001000000000000000000000000001300000000000000000000000000000002902340055346918008           N    00609
100013402454039012340055337617017LUSIANE GOMES R DA COSTA 00013148007032022        1010101200000001000000000000000000000000001300000000000000000000000000000000652340055337617017           N    00558
100014702457896012340055369560010LAIS COSTA ARAUJO        00032302814032022        1010101200000001000000000000000000000000001300000000000000000000000000000002902340055369560010           N    00611
100013602453824012340055305545002MIGUEL ARCANJO DE OLIVAS 00050416007032022        1010101200000001000000000000000000000000001300000000000000000000000000000004302340055305545002           N    00570
100014902453750012340055038285004MATHEUS HENRIQUE DE PAULA00024013007032022        1010101200000001000000000000000000000000001300000000000000000000000000000003302340055038285004           N    00615
100013602458483012340055323764004REINALDO NUNES DE ALMEIDA00050416015032022        1010101200000001000000000000000000000000001800000000000000000000000000000004302340055323764004           N    00574
100014902455506022340055105116000FLAVIO PEREIRA S JUNIOR  00024013009032022        3030403200000001000000000000000000000000000640000000000000000000000000000003302340055105116000           N    00618
100013702454456012340055105099009THOMAS MARCATO NAVES     00014268608032022        1010101200000001000000000000000000000000001300000000000000000000000000000000652340055105099009           N    00577
100014902456578012340055323420100ABNER FELIPE S AUGUSTO   00024013010032022        1010101200000001000000000000000000000000001300000000000000000000000000000003302340055323420100           N    00619
100015202454952012340055350869008WANDERSON N N DE PAULA   00043871008032022        1010101200000001000000000000000000000000001300000000000000000000000000000003502340055350869008           N    00636
100013702456464012340055377060315LETICIA DE A FRANCISCO   00014268610032022        1010101200000001000000000000000000000000001300000000000000000000000000000000652340055377060315           N    00580
100015602455985012340055313165019ANA LUCIA T DA SILVA     00018963109032022        1010101200000001000000000000000000000000001300000000000000000000000000000002902340055313165019           N    00642
100013702456775012340055365386008JANAINA DA S RODRIGUES   00014268611032022        1010101200000001000000000000000000000000001300000000000000000000000000000000652340055365386008           N    00581
100016102455720012340055356107029ANA CAROLINA M DA SILVA  00065299009032022        1010101200000001000000000000000000000000001800000000000000000000000000000000652340055356107029           N    00651
100013702457675012340055314935004JOSE MARCIO GOMES        00014268614032022        1010101200000001000000000000000000000000001300000000000000000000000000000000652340055314935004           N    00583
100013702457992012340055330787014NEUSA MARIA LAZARO PINTO 00014268614032022        1010101200000001000000000000000000000000001300000000000000000000000000000000652340055330787014           N    00584
100013902454450012340055347973010SHEILA T DE MELLO JESUS  00046216008032022        1010101200000001000000000000000000000000001300000000000000000000000000000000652340055347973010           N    00587
100014302457128012340055035846110LORENZO E G ARVELINO     00006736611032022        1010101200000001000000000000000000000000001300000000000000000000000000000003602340055035846110           N    00600
100014702458025012340055350508005PAULO LUCIO DA SILVA     00032302814032022        1010101200000001000000000000000000000000001300000000000000000000000000000002902340055350508005           N    00612
100016402457919022340055038011109GUILHERME AUGUSTO S MOTA 00056425014032022        4010101000000001000000000000000000000000000480000000000000000000000000000000602340055038011109           N    00659
100014902458700022340055328979009VALDIVINO PAULO FELIPE   00024013015032022        4130132300000001000000000000000000000000000200000000000000000000000000000003302340055328979009           N    00623
100016502456400022340055105156002GUILHERMINA VITORIA SILVA00024105610032022        4090138600000001000000000000000000000000003065000000000000000000000000000000652340055105156002           N    00666
100015002455415012340055038089302MAITE FERNANDA B SILVA   00019244609032022        1010101200000001000000000000000000000000001300000000000000000000000000000003602340055038089302           N    00626
100016656367000022340055335410016SIMONICA B B FIGUEIREDO  00048652010032022        4090148300000001000000000000000000000000007266000000000000000000000000000001302340055335410016           N    00674
100015002457072012340055038075301LAURA MARTINS S SANTOS   00019244611032022        1010101200000001000000000000000000000000001300000000000000000000000000000003602340055038075301           N    00630
100016702457820012340055356964100KAUAN RIBEIRO DA SILVA   00015124314032022        1010101200000001000000000000000000000000001300000000000000000000000000000000172340055356964100           N    00679
100015002458382012340055376647100DAVY SAMUEL P ANTENOR    00019244615032022        1010101200000001000000000000000000000000001300000000000000000000000000000003602340055376647100           N    00632
100017002456279022340055331112002ELITON DOS SANTOS COSTA  00024026210032022        4020261500000001000000000000000000000000006461000000000000000000000000000001802340055331112002           N    00685
100015102453928012340055035758009JEFERSON NICOLAU BALBINO 00055435007032022        1010101200000001000000000000000000000000001300000000000000000000000000000000172340055035758009           N    00633
100015802455388012340055370999004LINEKER CLAUBER SILVA ALV00042794009032022        1010101200000001000000000000000000000000001300000000000000000000000000000003402340055370999004           N    00647
100016202455357022340055035861110VICTOR HUGO FONSECA SILVA00037249009032022        4020125200000001000000000000000000000000002336000000000000000000000000000003502340055035861110           N    00652
100016402457933022340055348279002ANDRE LUIS RIBEIRO       00056425014032022        4010101000000001000000000000000000000000000480000000000000000000000000000000602340055348279002           N    00661
100016402458066012340055105405010ELIANA ALVES DA S NUNES  00056425014032022        1010101200000001000000000000000000000000001300000000000000000000000000000000602340055105405010           N    00663
100016656367000022340055335410016SIMONICA B B FIGUEIREDO  00048652010032022        4090147500000001000000000000000000000000006055000000000000000000000000000001302340055335410016           N    00673
100017702457112012340055376302013CRISTIANE A V SGARBOSA   00021367211032022        1010101200000001000000000000000000000000001300000000000000000000000000000003902340055376302013           N    00704
100017802457831012340055036119301GIOVANNA FERREIRA GOULART00026413714032022        1010101200000001000000000000000000000000001300000000000000000000000000000000192340055036119301           N    00706
100017902455964012340055373354012ELIANA RANGEL MAFRA      00024752609032022        1010101200000001000000000000000000000000001300000000000000000000000000000000652340055373354012           N    00708
100017002456342022340055331112002ELITON DOS SANTOS COSTA  00024026210032022        MATERIAL00000000000000000000103100000000000000000000000000000000000000000001802340055331112002           N    00687
100018202457026022340055033064026SANDRA HELENA SANTOS     00024708911032022        TX HOSP 00000001000000000000000000000000000000000000000017770000000000000002302340055033064026           N    00716
100017402457621012340055038258015ANDRESSA KELLY C B SILVA 00017509614032022        1010101200000001000000000000000000000000001300000000000000000000000000000000652340055038258015           N    00698
100018502458790012340055038270007POLIANE ANDRADE FERREIRA 00042922015032022        1010101200000001000000000000000000000000001300000000000000000000000000000003302340055038270007           N    00729
100018502458792022340055038270007POLIANE ANDRADE FERREIRA 00042922015032022        4130132300000001000000000000000000000000000200000000000000000000000000000003302340055038270007           N    00731
100018802454439012340055337587100LUIS G G CAMILO          00011830008032022        1010101200000001000000000000000000000000001300000000000000000000000000000000602340055337587100           N    00733
100018802454617022340055337587100LUIS G G CAMILO          00011830008032022        4010101000000001000000000000000000000000000480000000000000000000000000000000602340055337587100           N    00734
100019402456857022340055356964100KAUAN RIBEIRO DA SILVA   00011070911032022        1010614600000001000000000000000000000000002663000000000000000000000000000003602340055356964100           N    00737
100019402458087012340055373710102ARTHUR VITOR M MOREIRA   00011070914032022        1010101200000001000000000000000000000000001300000000000000000000000000000003602340055373710102           N    00740
100020702457172012340055326100000ALTEMIR JOSE CAETANO     00041973011032022        1010101200000001000000000000000000000000001300000000000000000000000000000003402340055326100000           N    00751
100021102454732022340055038329010ALINE UMBELINO SOUZA     13000002408032022        4031652100000001000000000000000000000000000680000000000000000000000000000005002340055038329010           N    00765
100021102456996022340055348392020GUARACIABA A P PAULA     13000002411032022        4030204000000002000000000000000000000000000224000000000000000000000000000005002340055348392020           N    00766
100021102456996022340055348392020GUARACIABA A P PAULA     13000002411032022        4030207500000001000000000000000000000000000360000000000000000000000000000005002340055348392020           N    00767
100017402457626012340055332607013THAILA PEREIRA S GOMES   00017509614032022        1010101200000001000000000000000000000000001300000000000000000000000000000000652340055332607013           N    00699
100021102457002022340055038324107ARTHUR FERREIRA DE ARAUJO13000002411032022        4030312800000001000000000000000000000000000160000000000000000000000000000005002340055038324107           N    00777
100017502454208012340055365378307ANNY GABRIELLY U MARCATO 00033528007032022        1010101200000001000000000000000000000000001800000000000000000000000000000003602340055365378307           N    00700
100021102457002022340055038324107ARTHUR FERREIRA DE ARAUJO13000002411032022        4030436100000001000000000000000000000000000240000000000000000000000000000005002340055038324107           N    00778
100021102457002022340055038324107ARTHUR FERREIRA DE ARAUJO13000002411032022        4031649100000001000000000000000000000000000680000000000000000000000000000005002340055038324107           N    00780
100018202457026022340055033064026SANDRA HELENA SANTOS     00024708911032022        MATERIAL00000000000000000000103100000000000000000000000000000000000000000002302340055033064026           N    00712
100021102457576022340055105115004RODRIGO VANONI           13000002414032022        4030204000000001000000000000000000000000000112000000000000000000000000000005002340055105115004           N    00786
100018655516000022340055035861128JOAO LUCAS FONSECA SILVA 00036304010032022        1010614600000001000000000000000000000000002663000000000000000000000000000003602340055035861128           N    00732
100021102457576022340055105115004RODRIGO VANONI           13000002414032022        4031121000000001000000000000000000000000000160000000000000000000000000000005002340055105115004           N    00790
100019402458825022340055350583309ANEELISE P F M TRISTAO   00011070915032022        1010614600000001000000000000000000000000002663000000000000000000000000000003602340055350583309           N    00741
100021302455164022340055036108318ESTHER VICTORIA O SILVA  11000105008032022        1010103900000001000000000000000000000000001800000000000000000000000000000006402340055036108318           N    00792
100021302456827022340055301078000ROGERIO AFONSO DA COSTA  11000105011032022        1010103900000001000000000000000000000000002500000000000000000000000000000006402340055301078000           N    00794
100021102454732022340055038329010ALINE UMBELINO SOUZA     13000002408032022        4030718200000001000000000000000000000000001600000000000000000000000000000005002340055038329010           N    00764
100021402453627022340055038061017KAUANA FLAVIA L PEREIRA  13000025007032022        4030184200000001000000000000000000000000000144000000000000000000000000000005002340055038061017           N    00803
100021102457024022340055374768007OTAVIO LELIS DE SOUZA    13000002411032022        4031021300000001000000000000000000000000000400000000000000000000000000000005002340055374768007           N    00782
100021402453627022340055038061017KAUANA FLAVIA L PEREIRA  13000025007032022        4030207500000001000000000000000000000000000360000000000000000000000000000005002340055038061017           N    00806
100021402453627022340055038061017KAUANA FLAVIA L PEREIRA  13000025007032022        4030242300000001000000000000000000000000000112000000000000000000000000000005002340055038061017           N    00809
100021402453627022340055038061017KAUANA FLAVIA L PEREIRA  13000025007032022        4030251200000001000000000000000000000000000112000000000000000000000000000005002340055038061017           N    00811
100021402453627022340055038061017KAUANA FLAVIA L PEREIRA  13000025007032022        4031652100000001000000000000000000000000000680000000000000000000000000000005002340055038061017           N    00820
100021402454634022340055306657009LUANA M ANTUNES          13000025008032022        4030436100000001000000000000000000000000000240000000000000000000000000000005002340055306657009           N    00829
100021102457576022340055105115004RODRIGO VANONI           13000002414032022        4030436100000001000000000000000000000000000240000000000000000000000000000005002340055105115004           N    00788
100021402454640022340055306657092FABIO HENRIQUE REIS      13000025008032022        4031650500000001000000000000000000000000001200000000000000000000000000000005002340055306657092           N    00841
100021102457576022340055105115004RODRIGO VANONI           13000002414032022        4030492200000001000000000000000000000000000480000000000000000000000000000005002340055105115004           N    00789
100021402454731022340055376035007ANDRESA RODRIGUES MACHADO13000025008032022        4030223700000001000000000000000000000000000128000000000000000000000000000005002340055376035007           N    00845
100021302458203022340055375225015DAMARIS A N SANTIAGO     11000105014032022        1010103900000001000000000000000000000000002500000000000000000000000000000006402340055375225015           N    00798
100021402454760022340055371580317JULIA BEATRIZ F FLAUZINO 13000025008032022        4030436100000001000000000000000000000000000240000000000000000000000000000005002340055371580317           N    00853
100021402453627022340055038061017KAUANA FLAVIA L PEREIRA  13000025007032022        4030163000000001000000000000000000000000000112000000000000000000000000000005002340055038061017           N    00802
100021402454772022340055371580104ENZO MIGUEL F FLAUZINO   13000025008032022        4031121000000001000000000000000000000000000160000000000000000000000000000005002340055371580104           N    00863
100021402454634022340055306657009LUANA M ANTUNES          13000025008032022        4030199000000001000000000000000000000000000160000000000000000000000000000005002340055306657009           N    00825
100021402454634022340055306657009LUANA M ANTUNES          13000025008032022        4030250400000001000000000000000000000000000112000000000000000000000000000005002340055306657009           N    00826
100021602454703022340055036222013ANA GABRIELA N PINHEIRO  13000006708032022        4030184200000001000000000000000000000000000144000000000000000000000000000005002340055036222013           N    00888
100021602454703022340055036222013ANA GABRIELA N PINHEIRO  13000006708032022        4030283000000001000000000000000000000000000552000000000000000000000000000005002340055036222013           N    00889
100021402454640022340055306657092FABIO HENRIQUE REIS      13000025008032022        4030436100000001000000000000000000000000000240000000000000000000000000000005002340055306657092           N    00837
100021602454703022340055036222013ANA GABRIELA N PINHEIRO  13000006708032022        4030492200000001000000000000000000000000000480000000000000000000000000000005002340055036222013           N    00891
100021402454731022340055376035007ANDRESA RODRIGUES MACHADO13000025008032022        4030184200000001000000000000000000000000000144000000000000000000000000000005002340055376035007           N    00844
100021402454772022340055371580104ENZO MIGUEL F FLAUZINO   13000025008032022        4030436100000001000000000000000000000000000240000000000000000000000000000005002340055371580104           N    00860
100021702456934022340055344702008ADINILSON DOS S GAMALIEL 13000020011032022        4030437000000001000000000000000000000000000080000000000000000000000000000005002340055344702008           N    00897
100021402454772022340055371580104ENZO MIGUEL F FLAUZINO   13000025008032022        4030839100000001000000000000000000000000000536000000000000000000000000000005002340055371580104           N    00862
100021702456934022340055344702008ADINILSON DOS S GAMALIEL 13000020011032022        4030786700000001000000000000000000000000000160000000000000000000000000000005002340055344702008           N    00899
100021402455589022340055010046013MARTA REGINA C RODRIGUES 13000025009032022        4030160500000001000000000000000000000000000112000000000000000000000000000005002340055010046013           N    00866
100021402455589022340055010046013MARTA REGINA C RODRIGUES 13000025009032022        4030250400000001000000000000000000000000000112000000000000000000000000000005002340055010046013           N    00870
100021702457531022340055038305005YURI DA SILVA MAFRA      13000020014032022        4030211300000001000000000000000000000000001600000000000000000000000000000005002340055038305005           N    00902
100021402455589022340055010046013MARTA REGINA C RODRIGUES 13000025009032022        4030254700000001000000000000000000000000000160000000000000000000000000000005002340055010046013           N    00872
100021402455589022340055010046013MARTA REGINA C RODRIGUES 13000025009032022        4030258000000001000000000000000000000000000112000000000000000000000000000005002340055010046013           N    00873
100021702457531022340055038305005YURI DA SILVA MAFRA      13000020014032022        4030283000000001000000000000000000000000000552000000000000000000000000000005002340055038305005           N    00904
100021402455589022340055010046013MARTA REGINA C RODRIGUES 13000025009032022        4031121000000001000000000000000000000000000160000000000000000000000000000005002340055010046013           N    00876
100021702457531022340055038305005YURI DA SILVA MAFRA      13000020014032022        4031657200000001000000000000000000000000000680000000000000000000000000000005002340055038305005           N    00906
100021402455589022340055010046013MARTA REGINA C RODRIGUES 13000025009032022        4031636000000001000000000000000000000000000440000000000000000000000000000005002340055010046013           N    00877
100021702457546022340055378119003ADENILSON MAFRA          13000020014032022        4030258000000001000000000000000000000000000112000000000000000000000000000005002340055378119003           N    00910
100021602454398022340055038187010SIMONE DA F CAMPOS       13000006708032022        4030436100000001000000000000000000000000000240000000000000000000000000000005002340055038187010           N    00883
100021702457546022340055378119003ADENILSON MAFRA          13000020014032022        4030436100000001000000000000000000000000000240000000000000000000000000000005002340055378119003           N    00911
100021602454398022340055038187010SIMONE DA F CAMPOS       13000006708032022        4031021300000001000000000000000000000000000400000000000000000000000000000005002340055038187010           N    00885
100021702458435022340055368873104JEAN HENRIQUE ROSA BORGES13000020015032022        4030164800000001000000000000000000000000000400000000000000000000000000000005002340055368873104           N    00917
100021602454703022340055036222013ANA GABRIELA N PINHEIRO  13000006708032022        4030436100000001000000000000000000000000000240000000000000000000000000000005002340055036222013           N    00890
100021702458435022340055368873104JEAN HENRIQUE ROSA BORGES13000020015032022        4030242300000001000000000000000000000000000112000000000000000000000000000005002340055368873104           N    00922
100021702458435022340055368873104JEAN HENRIQUE ROSA BORGES13000020015032022        4030436100000001000000000000000000000000000240000000000000000000000000000005002340055368873104           N    00929
100021702458435022340055368873104JEAN HENRIQUE ROSA BORGES13000020015032022        4031117100000001000000000000000000000000000800000000000000000000000000000005002340055368873104           N    00930
100021702458435022340055368873104JEAN HENRIQUE ROSA BORGES13000020015032022        4031657200000001000000000000000000000000000680000000000000000000000000000005002340055368873104           N    00933
100021802455284022340055342793006DOUGLAS L M DE CARVALHO  13000003209032022        4030204000000001000000000000000000000000000112000000000000000000000000000005002340055342793006           N    00939
100021802455284022340055342793006DOUGLAS L M DE CARVALHO  13000003209032022        4030251200000001000000000000000000000000000112000000000000000000000000000005002340055342793006           N    00941
100021902453436022340055375110005GILMAR CARDOSO RIBEIRO   00000002405032022        1010103900000001000000000000000000000000002500000000000000000000000000000006402340055375110005           N    00952
100021902453440022340055038276307ALICE HEMANUELLY R SILVA 00000002405032022        1010103900000001000000000000000000000000002500000000000000000000000000000006402340055038276307           N    00953
100021602454703022340055036222013ANA GABRIELA N PINHEIRO  13000006708032022        4031627000000001000000000000000000000000001000000000000000000000000000000005002340055036222013           N    00892
100021902453461022340055035875005BRUNO LUCIO BARBOZA      00000002406032022        1010103900000001000000000000000000000000001800000000000000000000000000000006402340055035875005           N    00954
100021902453495022340055035977010DAIANA ALMEIDA LIMA COSTA00000002406032022        1010103900000001000000000000000000000000002500000000000000000000000000000006402340055035977010           N    00955
100021702457546022340055378119003ADENILSON MAFRA          13000020014032022        4030163000000001000000000000000000000000000112000000000000000000000000000005002340055378119003           N    00907
100021902453511022340055331473005CLEBIO LUIS RODRIGUES    00000002406032022        1010103900000001000000000000000000000000001800000000000000000000000000000006402340055331473005           N    00958
100021702458435022340055368873104JEAN HENRIQUE ROSA BORGES13000020015032022        4030204000000001000000000000000000000000000112000000000000000000000000000005002340055368873104           N    00918
100022002458323022340055365386008JANAINA DA S RODRIGUES   13000017215032022        4030159100000001000000000000000000000000000320000000000000000000000000000005002340055365386008           N    00982
100022102454346022340055377007309RAYSSA APARECIDA OLIVEIRA00000002407032022        1010103900000001000000000000000000000000001800000000000000000000000000000006402340055377007309           N    00999
100022102454581022340055313416020MARIULDA DAS D FRANCISCO 00000002408032022        1010103900000001000000000000000000000000002500000000000000000000000000000006402340055313416020           N    01002
100022102455482022340055105191002ALISSON VITOR RIBEIRO    00000002409032022        1010103900000001000000000000000000000000002500000000000000000000000000000006402340055105191002           N    01009
100022602453864022340055035890314ESTHELA A DOS S OLIVEIRA 12000174507032022        4030158300000001000000000000000000000000000240000000000000000000000000000005002340055035890314           N    01019
100022602453864022340055035890314ESTHELA A DOS S OLIVEIRA 12000174507032022        4031627000000001000000000000000000000000001000000000000000000000000000000005002340055035890314           N    01023
100021702458435022340055368873104JEAN HENRIQUE ROSA BORGES13000020015032022        4030258000000001000000000000000000000000000112000000000000000000000000000005002340055368873104           N    00925
100021802455284022340055342793006DOUGLAS L M DE CARVALHO  13000003209032022        4030254700000001000000000000000000000000000160000000000000000000000000000005002340055342793006           N    00942
100021802455292022340055342793006DOUGLAS L M DE CARVALHO  13000003209032022        4030283000000001000000000000000000000000000552000000000000000000000000000005002340055342793006           N    00947
100021902453515022340055369225009WALDEYR RIBEIRO DE SOUZA 00000002406032022        1010103900000001000000000000000000000000002500000000000000000000000000000006402340055369225009           N    00960
100021902453541022340055105191002ALISSON VITOR RIBEIRO    00000002407032022        1010103900000001000000000000000000000000001800000000000000000000000000000006402340055105191002           N    00964
100022002454443022340055369110007ADRIANO DA SILVA JUNIOR  13000017208032022        4031652100000001000000000000000000000000000680000000000000000000000000000005002340055369110007           N    00977
100022002455631022340055038075301LAURA MARTINS S SANTOS   13000017209032022        4030436100000001000000000000000000000000000240000000000000000000000000000005002340055038075301           N    00979
100022602454650022340055328391010ROSELENA ROCHA TAVARES   12000174508032022        4030606200000001000000000000000000000000000320000000000000000000000000000005002340055328391010           N    01027
100022002455631022340055038075301LAURA MARTINS S SANTOS   13000017209032022        4031121000000001000000000000000000000000000160000000000000000000000000000005002340055038075301           N    00980
100022002458323022340055365386008JANAINA DA S RODRIGUES   13000017215032022        4030184200000001000000000000000000000000000144000000000000000000000000000005002340055365386008           N    00984
100022602454650022340055328391010ROSELENA ROCHA TAVARES   12000174508032022        4031121000000001000000000000000000000000000160000000000000000000000000000005002340055328391010           N    01031
100000802465299022340055037897006PAULO ROGERIO MARTINS    00034841128032022        4010101000000001000000000000000000000000000480000000000000000000000000000000602340055037897006           N    00016
100022002458323022340055365386008JANAINA DA S RODRIGUES   13000017215032022        4030269500000001000000000000000000000000000240000000000000000000000000000005002340055365386008           N    00988
100022002458323022340055365386008JANAINA DA S RODRIGUES   13000017215032022        4031652100000001000000000000000000000000000680000000000000000000000000000005002340055365386008           N    00993
100022802458165022340055366552009SARA EVELIN T DOS SANTOS 12000103614032022        4090130000000001000000000000000000000000001674000000000000000000000000000007802340055366552009           N    01036
100000802467749022340055333760303ANA CARLA D GONCALVES    00034841131032022        4010101000000001000000000000000000000000000480000000000000000000000000000000602340055333760303           N    00020
100001602466178012340055352608104MURILO ANTONIO MARTINS   00006736629032022        1010101200000001000000000000000000000000001300000000000000000000000000000003602340055352608104           N    00034
100001602467360012340055376320305MARIA SOFIA ROCHA VIOTTI 00006736630032022        1010101200000001000000000000000000000000001300000000000000000000000000000003602340055376320305           N    00038
100023002455594022340055378887000MAILSON S DE OLIVEIRA    00057381009032022        4090122000000001000000000000000000000000001587000000000000000000000000000004002340055378887000           N    01040
100022102453558022340055038239304MARIA EDUARDA C CUSTODIO 00000002407032022        1010103900000001000000000000000000000000001800000000000000000000000000000006402340055038239304           N    00996
100001502468060012340055362620018CILAINE MENDES T ARAUJO  00039543031032022        1010101200000001000000000000000000000000001300000000000000000000000000000002002340055362620018           N    00031
100023002456773022340055335410016SIMONICA B B FIGUEIREDO  00057381011032022        4080501800000001000000000000000000000000000428000000000000000000000000000004002340055335410016           N    01042
100022102453566022340055325970000PAULO HENRIQUE DE SOUZA  00000002407032022        1010103900000001000000000000000000000000001800000000000000000000000000000006402340055325970000           N    00997
100023302455711022340055323349023EDNA DE OLIVEIRA         00034841109032022        4010101000000001000000000000000000000000000480000000000000000000000000000000602340055323349023           N    01043
100022102454682022340055038075301LAURA MARTINS S SANTOS   00000002408032022        1010103900000001000000000000000000000000002500000000000000000000000000000006402340055038075301           N    01003
100023302456429022340055334618012ESTEFANIA AP DE S BARROS 00034841110032022        4010101000000001000000000000000000000000000480000000000000000000000000000000602340055334618012           N    01045
100022102455153022340055366870302EMILLY GOMES DE ARAUJO   00000002408032022        1010103900000001000000000000000000000000002500000000000000000000000000000006402340055366870302           N    01006
100023502456826022340055323764012MARLY DOS REIS DE ALMEIDA13000006711032022        4030283000000001000000000000000000000000000552000000000000000000000000000005002340055323764012           N    01057
100022202453771022340055105129005FERNANDO FELIPE BERTO    11000102507032022        1010103900000001000000000000000000000000002500000000000000000000000000000006402340055105129005           N    01010
100023602455765022340055334030104NICOLAS GABRIEL LEMES    00000002409032022        1010103900000001000000000000000000000000001800000000000000000000000000000006402340055334030104           N    01077
100023602456042022340055329681011MIRIAM DE OLIVEIRA BRAGA 00000002409032022        1010103900000001000000000000000000000000002500000000000000000000000000000006402340055329681011           N    01079
100023602456609022340055370460008LUCAS ARADO DE TOLEDO    00000002410032022        1010103900000001000000000000000000000000002500000000000000000000000000000006402340055370460008           N    01081
100023702455692022340055351504003ALAERCIO SILVA SOARES    13000025009032022        4030203200000001000000000000000000000000000240000000000000000000000000000005002340055351504003           N    01087
100023702455692022340055351504003ALAERCIO SILVA SOARES    13000025009032022        4030258000000001000000000000000000000000000112000000000000000000000000000005002340055351504003           N    01093
100022602453864022340055035890314ESTHELA A DOS S OLIVEIRA 12000174507032022        4030160500000001000000000000000000000000000112000000000000000000000000000005002340055035890314           N    01020
100023702455692022340055351504003ALAERCIO SILVA SOARES    13000025009032022        4030275000000001000000000000000000000000000560000000000000000000000000000005002340055351504003           N    01094
100022602453864022340055035890314ESTHELA A DOS S OLIVEIRA 12000174507032022        4030436100000001000000000000000000000000000240000000000000000000000000000005002340055035890314           N    01022
100023702455692022340055351504003ALAERCIO SILVA SOARES    13000025009032022        4030436100000001000000000000000000000000000240000000000000000000000000000005002340055351504003           N    01098
100022802459123022340055035977010DAIANA ALMEIDA LIMA COSTA12000103616032022        4090138600000001000000000000000000000000003065000000000000000000000000000007802340055035977010           N    01038
100023702456009022340055365386008JANAINA DA S RODRIGUES   13000025009032022        4060132300000001000000000000000000000000001192000000000000000000000000000005002340055365386008           N    01106
100023002456773022340055335410016SIMONICA B B FIGUEIREDO  00057381011032022        4080403800000001000000000000000000000000000634000000000000000000000000000004002340055335410016           N    01041
100023702457092022340055332607013THAILA PEREIRA S GOMES   13000025011032022        4031121000000001000000000000000000000000000160000000000000000000000000000005002340055332607013           N    01110
100023302457211022340055328219306THAINA DE O ANDRADE      00034841111032022        4010101000000001000000000000000000000000000480000000000000000000000000000000602340055328219306           N    01046
100023702457507022340055339547008DOUGLAS BATISTA BERTOLDO 13000025014032022        4031627000000001000000000000000000000000001000000000000000000000000000000005002340055339547008           N    01117
100023702457650022340055314935004JOSE MARCIO GOMES        13000025014032022        4030204000000001000000000000000000000000000112000000000000000000000000000005002340055314935004           N    01123
100001502468193012340055376892015JULIANA SANTOS O FERREIRA00039543031032022        1010101200000001000000000000000000000000001300000000000000000000000000000002002340055376892015           N    00033
100023702457650022340055314935004JOSE MARCIO GOMES        13000025014032022        4030250400000001000000000000000000000000000112000000000000000000000000000005002340055314935004           N    01126
100001802465654012340055314633008JAIR ROSA DA SILVA       00029138028032022        1010101200000001000000000000000000000000001300000000000000000000000000000003302340055314633008           N    00043
100001802465715012340055325970302SABRINA HELENA B DE SOUZA00029138028032022        1010101200000001000000000000000000000000001300000000000000000000000000000003302340055325970302           N    00045
100023702457650022340055314935004JOSE MARCIO GOMES        13000025014032022        4030258000000001000000000000000000000000000112000000000000000000000000000005002340055314935004           N    01128
100023302458128022340055036140092GILMAR BRAZ              00034841114032022        4010101000000001000000000000000000000000000480000000000000000000000000000000602340055036140092           N    01047
100023702457650022340055314935004JOSE MARCIO GOMES        13000025014032022        4031635100000001000000000000000000000000000680000000000000000000000000000005002340055314935004           N    01134
100023302458243022340055105115004RODRIGO VANONI           00034841115032022        4010104500000001000000000000000000000000001760000000000000000000000000000000602340055105115004           N    01048
100023802457329022340055347302000RAONI ANDRADE PEREIRA    00000002412032022        1010103900000001000000000000000000000000001800000000000000000000000000000006402340055347302000           N    01145
100023302458243022340055105115004RODRIGO VANONI           00034841115032022        4090110600000001000000000000000000000000004000000000000000000000000000000000602340055105115004           N    01049
100023356577000022340055370193000ROGERIO G DA SILVA       00034841111032022        4010103700000001000000000000000000000000002067000000000000000000000000000000602340055370193000           N    01050
100002102467471012340055367796017THAIS DE PAULA DOS REIS  00043871030032022        1010101200000001000000000000000000000000001300000000000000000000000000000003502340055367796017           N    00068
100023902457715022340055038181004HEMERSON DIAS            00000002414032022        1010103900000001000000000000000000000000002500000000000000000000000000000006402340055038181004           N    01157
100002202465727012340055373338017ELIANE C S FERREIRA      00037249028032022        1010101200000001000000000000000000000000001300000000000000000000000000000003502340055373338017           N    00071
100002302466940012340055336661012ELAINE AP G A ALVARO     00012688530032022        1010101200000001000000000000000000000000001300000000000000000000000000000001802340055336661012           N    00076
100003558108000022340055334960012TATIANA DO C OLIVEIRA    00016420514032022        2010407300000001000000000000000000000000000672000000000000000000000000000000172340055334960012           N    00091
100024002458246022340055356492011VANUZA A DA R V MEIRELLES13000010515032022        4090176900000001000000000000000000000000001907000000000000000000000000000004002340055356492011           N    01171
100023356577000022340055370193000ROGERIO G DA SILVA       00034841111032022        4090110600000001000000000000000000000000004000000000000000000000000000000000602340055370193000           N    01051
100003702468249022340055377060307GABRIELA DE A FRANCISCO  00024105631032022        4090118100000001000000000000000000000000000914000000000000000000000000000000652340055377060307           N    00094
100024002458330022340055324035103BRENDO AUGUSTO DE ANDRADE13000010515032022        4080408900000001000000000000000000000000000507000000000000000000000000000004002340055324035103           N    01172
100023502456826022340055323764012MARLY DOS REIS DE ALMEIDA13000006711032022        4030436100000001000000000000000000000000000240000000000000000000000000000005002340055323764012           N    01059
100024102457736022340055355020000VINICIUS SILVA M BRASIL  13000006714032022        4030275000000001000000000000000000000000000560000000000000000000000000000005002340055355020000           N    01180
100023602456332022340055036140092GILMAR BRAZ              00000002410032022        1010103900000001000000000000000000000000001800000000000000000000000000000006402340055036140092           N    01080
100024102457736022340055355020000VINICIUS SILVA M BRASIL  13000006714032022        4031651300000001000000000000000000000000000840000000000000000000000000000005002340055355020000           N    01184
100003802458958022340055105151000JEAN CARLOS DE OLIVEIRA  00024026216032022        4020261500000001000000000000000000000000006461000000000000000000000000000001802340055105151000           N    00097
100023602456730022340055373710102ARTHUR VITOR M MOREIRA   00000002410032022        1010103900000001000000000000000000000000001800000000000000000000000000000006402340055373710102           N    01083
100023702455692022340055351504003ALAERCIO SILVA SOARES    13000025009032022        4030251200000001000000000000000000000000000112000000000000000000000000000005002340055351504003           N    01092
100023702455692022340055351504003ALAERCIO SILVA SOARES    13000025009032022        4030311000000001000000000000000000000000000160000000000000000000000000000005002340055351504003           N    01096
100003802468151022340055316741010RENATA APDA SOUZA PEREIRA00024026231032022        4090112200000001000000000000000000000000002975000000000000000000000000000001802340055316741010           N    00101
100023702457507022340055339547008DOUGLAS BATISTA BERTOLDO 13000025014032022        4030435300000001000000000000000000000000000320000000000000000000000000000005002340055339547008           N    01114
100023702457650022340055314935004JOSE MARCIO GOMES        13000025014032022        4030128100000001000000000000000000000000000112000000000000000000000000000005002340055314935004           N    01119
100004202463002022340055332321322LAURA VITORIA A PROCOPIO 00011070923032022        1010614600000001000000000000000000000000002663000000000000000000000000000003602340055332321322           N    00111
100023702457650022340055314935004JOSE MARCIO GOMES        13000025014032022        4030163000000001000000000000000000000000000112000000000000000000000000000005002340055314935004           N    01120
100004402465829012340055329681011MIRIAM DE OLIVEIRA BRAGA 00032302828032022        1010101200000001000000000000000000000000001300000000000000000000000000000002902340055329681011           N    00123
100024102457737022340055352535328ISABELE ALICE F MACHADO  13000006714032022        4031627000000001000000000000000000000000001000000000000000000000000000000005002340055352535328           N    01189
100023802457304022340055352381002MARINA FIRMINO           00000002412032022        1010103900000001000000000000000000000000001800000000000000000000000000000006402340055352381002           N    01142
100023802457392022340055105125000CARLOS ROBERTO RIBEIRO   00000002413032022        1010103900000001000000000000000000000000002500000000000000000000000000000006402340055105125000           N    01149
100023802457399022340055038359300LARA ANDRADE DUARTE      00000002413032022        1010103900000001000000000000000000000000002500000000000000000000000000000006402340055038359300           N    01150
100004902468225012340055362620301SOFIA M T DE ARAUJO      00015124331032022        1010101200000001000000000000000000000000001300000000000000000000000000000000172340055362620301           N    00132
100024102458831022340055334960004JOSE BREVES MAFRA        13000006715032022        4030238500000001000000000000000000000000000120000000000000000000000000000005002340055334960004           N    01195
100023802457404022340055010046307MELISSA CUBBI RODRIGUES  00000002413032022        1010103900000001000000000000000000000000001800000000000000000000000000000006402340055010046307           N    01152
100007666599000022340055356522301SOPHIA HELLENA A URBANO  00036304030032022        1010614600000001000000000000000000000000002663000000000000000000000000000003602340055356522301           N    00149
100024102458831022340055334960004JOSE BREVES MAFRA        13000006715032022        4030250400000001000000000000000000000000000112000000000000000000000000000005002340055334960004           N    01196
100023902457628022340055038169101SAMUEL MARQUES CANELAS   00000002414032022        1010103900000001000000000000000000000000002500000000000000000000000000000006402340055038169101           N    01154
100024202458134022340055306118000JOSE CARLOS AUGUSTO      13000025014032022        4030463900000001000000000000000000000000000120000000000000000000000000000005002340055306118000           N    01211
100008402465511022340055316741312RENARA LINA PEREIRA      13000025028032022        4030722000000001000000000000000000000000000400000000000000000000000000000005002340055316741312           N    00159
100024002458046022340055038305005YURI DA SILVA MAFRA      13000010514032022        4080201900000001000000000000000000000000000610000000000000000000000000000004002340055038305005           N    01168
100024202458144022340055375764005LUIZ F M DA S FRANCISCO  13000025014032022        4030803000000001000000000000000000000000000160000000000000000000000000000005002340055375764005           N    01219
100024102457697022340055357189118PEDRO MIGUEL URBANA ROCHA13000006714032022        4030312800000001000000000000000000000000000160000000000000000000000000000005002340055357189118           N    01173
100024202458579022340055354643004RONI CESAR CANDIDO       13000025015032022        4030115000000001000000000000000000000000000112000000000000000000000000000005002340055354643004           N    01230
100008602466122022340055037946015REGINA CELIA NASCIMENTO  13000010529032022        4080408900000001000000000000000000000000000507000000000000000000000000000004002340055037946015           N    00168
100024102457737022340055352535328ISABELE ALICE F MACHADO  13000006714032022        4030204000000001000000000000000000000000000112000000000000000000000000000005002340055352535328           N    01186
100024202458579022340055354643004RONI CESAR CANDIDO       13000025015032022        4030163000000001000000000000000000000000000112000000000000000000000000000005002340055354643004           N    01232
100024102458831022340055334960004JOSE BREVES MAFRA        13000006715032022        4030204000000001000000000000000000000000000112000000000000000000000000000005002340055334960004           N    01194
100024202458579022340055354643004RONI CESAR CANDIDO       13000025015032022        4030164800000001000000000000000000000000000400000000000000000000000000000005002340055354643004           N    01233
100008702466042022340055370460300SOFIA MOREIRA DE TOLEDO  13000006729032022        4030283000000001000000000000000000000000000552000000000000000000000000000005002340055370460300           N    00181
100024202458134022340055306118000JOSE CARLOS AUGUSTO      13000025014032022        4030163000000001000000000000000000000000000112000000000000000000000000000005002340055306118000           N    01205
100024202458579022340055354643004RONI CESAR CANDIDO       13000025015032022        4030231800000001000000000000000000000000000112000000000000000000000000000005002340055354643004           N    01239
100008702466042022340055370460300SOFIA MOREIRA DE TOLEDO  13000006729032022        4030312800000001000000000000000000000000000160000000000000000000000000000005002340055370460300           N    00182
100024202458144022340055375764005LUIZ F M DA S FRANCISCO  13000025014032022        4030251200000001000000000000000000000000000112000000000000000000000000000005002340055375764005           N    01215
100024202458579022340055354643004RONI CESAR CANDIDO       13000025015032022        4030436100000001000000000000000000000000000240000000000000000000000000000005002340055354643004           N    01246
100024202458579022340055354643004RONI CESAR CANDIDO       13000025015032022        4030839100000001000000000000000000000000000536000000000000000000000000000005002340055354643004           N    01247
100024202458600022340055356964100KAUAN RIBEIRO DA SILVA   13000025015032022        4030436100000001000000000000000000000000000240000000000000000000000000000005002340055356964100           N    01254
100024202458603022340055346861022ELZA APARECIDA FORTUNATO 13000025015032022        4030199000000001000000000000000000000000000160000000000000000000000000000005002340055346861022           N    01259
100024202458147022340055329975015VIVIAN CANDIDO F OLIVEIRA13000025014032022        4031657200000001000000000000000000000000000680000000000000000000000000000005002340055329975015           N    01227
100024202458603022340055346861022ELZA APARECIDA FORTUNATO 13000025015032022        4030204000000001000000000000000000000000000112000000000000000000000000000005002340055346861022           N    01260
100024202458579022340055354643004RONI CESAR CANDIDO       13000025015032022        4030184200000001000000000000000000000000000144000000000000000000000000000005002340055354643004           N    01234
100024202458579022340055354643004RONI CESAR CANDIDO       13000025015032022        4030250400000001000000000000000000000000000112000000000000000000000000000005002340055354643004           N    01241
100024202458603022340055346861022ELZA APARECIDA FORTUNATO 13000025015032022        4030250400000001000000000000000000000000000112000000000000000000000000000005002340055346861022           N    01261
100024202458579022340055354643004RONI CESAR CANDIDO       13000025015032022        4031657200000001000000000000000000000000000680000000000000000000000000000005002340055354643004           N    01251
100024202458600022340055356964100KAUAN RIBEIRO DA SILVA   13000025015032022        4030204000000001000000000000000000000000000112000000000000000000000000000005002340055356964100           N    01252
100024202458603022340055346861022ELZA APARECIDA FORTUNATO 13000025015032022        4030283000000001000000000000000000000000000552000000000000000000000000000005002340055346861022           N    01264
100024202458603022340055346861022ELZA APARECIDA FORTUNATO 13000025015032022        4031652100000001000000000000000000000000000680000000000000000000000000000005002340055346861022           N    01267
100024202458719022340055374946010MILENA MENDES R ANASTACIO13000025015032022        4030163000000001000000000000000000000000000112000000000000000000000000000005002340055374946010           N    01269
100008702466042022340055370460300SOFIA MOREIRA DE TOLEDO  13000006729032022        4031121000000001000000000000000000000000000160000000000000000000000000000005002340055370460300           N    00184
100024202458719022340055374946010MILENA MENDES R ANASTACIO13000025015032022        4030204000000001000000000000000000000000000112000000000000000000000000000005002340055374946010           N    01270
100024202458719022340055374946010MILENA MENDES R ANASTACIO13000025015032022        4031652100000001000000000000000000000000000680000000000000000000000000000005002340055374946010           N    01278
100024202458719022340055374946010MILENA MENDES R ANASTACIO13000025015032022        4031635100000001000000000000000000000000000680000000000000000000000000000005002340055374946010           N    01277
100024357263000022340055338621301IARA MOURA GABRIEL       11000105015032022        4080408900000001000000000000000000000000000507000000000000000000000000000006402340055338621301           N    01285
100024702451202022340055038305005YURI DA SILVA MAFRA      12000254025022022        5000014400000001000000000000000000000000000528000000000000000000000000000006102340055038305005           N    01292
100024852440000022340055367265100PEDRO HENRIQUE N DA SILVA12000262004032022        5000047000000006000000000000000000000000002880000000000000000000000000000007302340055367265100           N    01294
100024954543000022340055330043023ARIADINE LENISE ALVES    12000248008032022        5000056000000001000000000000000000000000000480000000000000000000000000000003202340055330043023           N    01298
100024958038000022340055349950026LUANA TOMAZ              12000248015032022        5000056000000001000000000000000000000000000480000000000000000000000000000003202340055349950026           N    01300
100025102434452022340055334456004LESSANDRO DIAS LOPES     12000249027012022        2010334400000010000000000000000000000000004000000000000000000000000000000003202340055334456004           N    01301
100025102434452022340055334456004LESSANDRO DIAS LOPES     12000249027012022        2010344100000010000000000000000000000000004800000000000000000000000000000003202340055334456004           N    01302
100025102450273022340055334456004LESSANDRO DIAS LOPES     12000249002032022        2010349200000001000000000000000000000000000400000000000000000000000000000003202340055334456004           N    01306
100025102450273022340055334456004LESSANDRO DIAS LOPES     12000249009032022        2010349200000001000000000000000000000000000400000000000000000000000000000003202340055334456004           N    01321
100025102450273022340055334456004LESSANDRO DIAS LOPES     12000249011032022        2010344100000001000000000000000000000000000480000000000000000000000000000003202340055334456004           N    01326
100025102450273022340055334456004LESSANDRO DIAS LOPES     12000249024022022        2010334400000001000000000000000000000000000400000000000000000000000000000003202340055334456004           N    01328
100025102450273022340055334456004LESSANDRO DIAS LOPES     12000249025022022        2010344100000001000000000000000000000000000480000000000000000000000000000003202340055334456004           N    01332
100025202452097022340055035819008HUDSON W FERREIRA        12000172902032022        2010351400000010000000000000000000000000004000000000000000000000000000000006102340055035819008           N    01340
100025202452097022340055035819008HUDSON W FERREIRA        12000172902032022        2010367000000010000000000000000000000000005040000000000000000000000000000006102340055035819008           N    01341
100025358701000022340055377392016RAYSSA A O MARTINS       12000204016032022        5000046200000001000000000000000000000000000600000000000000000000000000000007302340055377392016           N    01349
100008702466187022340055355364109MIGUEL OLIVEIRA PEREIRA  13000006729032022        4030204000000001000000000000000000000000000112000000000000000000000000000005002340055355364109           N    00190
100025602451157022340055376620015FERNANDA CORREA SPOHR    12000217025022022        MATERIAL00000000000000000000011200000000000000000000000000000000000000000004002340055376620015           N    01351
100024202458719022340055374946010MILENA MENDES R ANASTACIO13000025015032022        4031657200000001000000000000000000000000000680000000000000000000000000000005002340055374946010           N    01279
100025602451157022340055376620015FERNANDA CORREA SPOHR    12000217025022022        MEDICAM 00000000000000000000001900000000000000000000000000000000000000000004002340055376620015           N    01353
100008702466187022340055355364109MIGUEL OLIVEIRA PEREIRA  13000006729032022        4030250400000001000000000000000000000000000112000000000000000000000000000005002340055355364109           N    00191
100025602460664022340055339725011RUANA G SOUZA CUSTODIO   12000217018032022        MATERIAL00000000000000000000092600000000000000000000000000000000000000000004002340055339725011           N    01367
100008702466198022340055355364028DANIELE SANTOS O PEREIRA 13000006729032022        4030283000000001000000000000000000000000000552000000000000000000000000000005002340055355364028           N    00203
100025602460664022340055339725011RUANA G SOUZA CUSTODIO   12000217018032022        MATERIAL00000000000000000000005400000000000000000000000000000000000000000004002340055339725011           N    01365
100025652085000022340055337587010VALDIRENE G CAMILO       12000217003032022        4110131600000001000000000000000000000000016465000000000000000000000000000004002340055337587010           N    01371
100008702466198022340055355364028DANIELE SANTOS O PEREIRA 13000006729032022        4031657200000001000000000000000000000000000680000000000000000000000000000005002340055355364028           N    00211
100025658498000022340055038169004RENAN DE OLIVEIRA CANELAS12000217016032022        4110130800000001000000000000000000000000012519000000000000000000000000000004002340055038169004           N    01372
100027602459632012340055316741010RENATA APDA SOUZA PEREIRA00039543016032022        1010101200000001000000000000000000000000001300000000000000000000000000000002002340055316741010           N    01395
100008702466331022340055334634301LARA ISABELE SILVA MUQUEM13000006729032022        4030283000000001000000000000000000000000000552000000000000000000000000000005002340055334634301           N    00216
100027702459427012340055334634018LUANA DA SILVA MUQUEM    00043871016032022        1010101200000001000000000000000000000000001300000000000000000000000000000003502340055334634018           N    01398
100027702462171012340055353345000CLEONICE BUENO SILVA     00043871022032022        1010101200000001000000000000000000000000001300000000000000000000000000000003502340055353345000           N    01403
100028002459574012340055348805006EVANEI DOS SANTOS        00029138016032022        1010101200000001000000000000000000000000001300000000000000000000000000000003302340055348805006           N    01410
100008702466331022340055334634301LARA ISABELE SILVA MUQUEM13000006729032022        4030312800000001000000000000000000000000000160000000000000000000000000000005002340055334634301           N    00217
100028002459608022340055371149004ADAO CARLOS RIBEIRO      00029138016032022        4130132300000001000000000000000000000000000200000000000000000000000000000003302340055371149004           N    01413
100024302458268022340055038169004RENAN DE OLIVEIRA CANELAS11000105015032022        1010103900000001000000000000000000000000002500000000000000000000000000000006402340055038169004           N    01280
100028002463437012340055366889100PEDRO HENRIQUE S SILVA   00029138023032022        1010101200000001000000000000000000000000001300000000000000000000000000000003302340055366889100           N    01422
100028302459240012340055337617017LUSIANE GOMES R DA COSTA 12000256016032022        1010101200000001000000000000000000000000001300000000000000000000000000000000602340055337617017           N    01436
100028302459245022340055337617017LUSIANE GOMES R DA COSTA 12000256016032022        4010101000000001000000000000000000000000000480000000000000000000000000000000602340055337617017           N    01437
100024302458913022340055011608309VALENTINNA SOUZA VENANCIO11000105015032022        1010103900000001000000000000000000000000002500000000000000000000000000000006402340055011608309           N    01281
100028302460137022340055378119003ADENILSON MAFRA          12000256017032022        4010101000000001000000000000000000000000000480000000000000000000000000000000602340055378119003           N    01439
100028502460848012340055374946304ANNA CECILIA A RIBEIRO   00006736618032022        1010101200000001000000000000000000000000001300000000000000000000000000000003602340055374946304           N    01446
100028802461790012340055347302302ANA JULIA A DIONISIO     00019244621032022        1010101200000001000000000000000000000000001300000000000000000000000000000003602340055347302302           N    01456
